{
  "contractName": "SupplyChain",
  "abi": [
    {
      "inputs": [
        {
          "internalType": "string",
          "name": "name_",
          "type": "string"
        },
        {
          "internalType": "string",
          "name": "email_",
          "type": "string"
        }
      ],
      "stateMutability": "nonpayable",
      "type": "constructor"
    },
    {
      "anonymous": false,
      "inputs": [
        {
          "indexed": false,
          "internalType": "string",
          "name": "name",
          "type": "string"
        },
        {
          "indexed": false,
          "internalType": "string",
          "name": "email",
          "type": "string"
        },
        {
          "indexed": false,
          "internalType": "enum Users.UserRole",
          "name": "role",
          "type": "uint8"
        }
      ],
      "name": "lostUser",
      "type": "event"
    },
    {
      "anonymous": false,
      "inputs": [
        {
          "indexed": false,
          "internalType": "string",
          "name": "name",
          "type": "string"
        },
        {
          "indexed": false,
          "internalType": "string",
          "name": "manufacturerName",
          "type": "string"
        },
        {
          "indexed": false,
          "internalType": "string",
          "name": "scientificName",
          "type": "string"
        },
        {
          "indexed": false,
          "internalType": "string",
          "name": "barcodeId",
          "type": "string"
        },
        {
          "indexed": false,
          "internalType": "uint256",
          "name": "manDateEpoch",
          "type": "uint256"
        },
        {
          "indexed": false,
          "internalType": "uint256",
          "name": "expDateEpoch",
          "type": "uint256"
        }
      ],
      "name": "newProduct",
      "type": "event"
    },
    {
      "anonymous": false,
      "inputs": [
        {
          "indexed": false,
          "internalType": "string",
          "name": "name",
          "type": "string"
        },
        {
          "indexed": false,
          "internalType": "string",
          "name": "email",
          "type": "string"
        },
        {
          "indexed": false,
          "internalType": "enum Users.UserRole",
          "name": "role",
          "type": "uint8"
        }
      ],
      "name": "newUser",
      "type": "event"
    },
    {
      "anonymous": false,
      "inputs": [
        {
          "indexed": false,
          "internalType": "string",
          "name": "name",
          "type": "string"
        },
        {
          "indexed": false,
          "internalType": "string",
          "name": "manufacturerName",
          "type": "string"
        },
        {
          "indexed": false,
          "internalType": "string",
          "name": "scientificName",
          "type": "string"
        },
        {
          "indexed": false,
          "internalType": "string",
          "name": "barcodeId",
          "type": "string"
        },
        {
          "indexed": false,
          "internalType": "string",
          "name": "buyerName",
          "type": "string"
        },
        {
          "indexed": false,
          "internalType": "string",
          "name": "buyerEmail",
          "type": "string"
        }
      ],
      "name": "productOwnershipTransfer",
      "type": "event"
    },
    {
      "inputs": [],
      "name": "getAllProducts",
      "outputs": [
        {
          "components": [
            {
              "internalType": "string",
              "name": "name",
              "type": "string"
            },
            {
              "internalType": "string",
              "name": "manufacturerName",
              "type": "string"
            },
            {
              "internalType": "address",
              "name": "manufacturer",
              "type": "address"
            },
            {
              "internalType": "uint256",
              "name": "manDateEpoch",
              "type": "uint256"
            },
            {
              "internalType": "uint256",
              "name": "expDateEpoch",
              "type": "uint256"
            },
            {
              "internalType": "bool",
              "name": "isInBatch",
              "type": "bool"
            },
            {
              "internalType": "uint256",
              "name": "batchCount",
              "type": "uint256"
            },
            {
              "internalType": "string",
              "name": "barcodeId",
              "type": "string"
            },
            {
              "internalType": "string",
              "name": "productImage",
              "type": "string"
            },
            {
              "internalType": "enum Products.ProductType",
              "name": "productType",
              "type": "uint8"
            },
            {
              "internalType": "string",
              "name": "scientificName",
              "type": "string"
            },
            {
              "internalType": "string",
              "name": "usage",
              "type": "string"
            },
            {
              "internalType": "string[]",
              "name": "composition",
              "type": "string[]"
            },
            {
              "internalType": "string[]",
              "name": "sideEffects",
              "type": "string[]"
            }
          ],
          "internalType": "struct Products.Product[]",
          "name": "",
          "type": "tuple[]"
        }
      ],
      "stateMutability": "view",
      "type": "function",
      "constant": true
    },
    {
      "inputs": [],
      "name": "getMyProducts",
      "outputs": [
        {
          "components": [
            {
              "internalType": "string",
              "name": "name",
              "type": "string"
            },
            {
              "internalType": "string",
              "name": "manufacturerName",
              "type": "string"
            },
            {
              "internalType": "address",
              "name": "manufacturer",
              "type": "address"
            },
            {
              "internalType": "uint256",
              "name": "manDateEpoch",
              "type": "uint256"
            },
            {
              "internalType": "uint256",
              "name": "expDateEpoch",
              "type": "uint256"
            },
            {
              "internalType": "bool",
              "name": "isInBatch",
              "type": "bool"
            },
            {
              "internalType": "uint256",
              "name": "batchCount",
              "type": "uint256"
            },
            {
              "internalType": "string",
              "name": "barcodeId",
              "type": "string"
            },
            {
              "internalType": "string",
              "name": "productImage",
              "type": "string"
            },
            {
              "internalType": "enum Products.ProductType",
              "name": "productType",
              "type": "uint8"
            },
            {
              "internalType": "string",
              "name": "scientificName",
              "type": "string"
            },
            {
              "internalType": "string",
              "name": "usage",
              "type": "string"
            },
            {
              "internalType": "string[]",
              "name": "composition",
              "type": "string[]"
            },
            {
              "internalType": "string[]",
              "name": "sideEffects",
              "type": "string[]"
            }
          ],
          "internalType": "struct Products.Product[]",
          "name": "",
          "type": "tuple[]"
        }
      ],
      "stateMutability": "view",
      "type": "function",
      "constant": true
    },
    {
      "inputs": [
        {
          "internalType": "string",
          "name": "barcodeId_",
          "type": "string"
        }
      ],
      "name": "getSingleProduct",
      "outputs": [
        {
          "components": [
            {
              "internalType": "string",
              "name": "name",
              "type": "string"
            },
            {
              "internalType": "string",
              "name": "manufacturerName",
              "type": "string"
            },
            {
              "internalType": "address",
              "name": "manufacturer",
              "type": "address"
            },
            {
              "internalType": "uint256",
              "name": "manDateEpoch",
              "type": "uint256"
            },
            {
              "internalType": "uint256",
              "name": "expDateEpoch",
              "type": "uint256"
            },
            {
              "internalType": "bool",
              "name": "isInBatch",
              "type": "bool"
            },
            {
              "internalType": "uint256",
              "name": "batchCount",
              "type": "uint256"
            },
            {
              "internalType": "string",
              "name": "barcodeId",
              "type": "string"
            },
            {
              "internalType": "string",
              "name": "productImage",
              "type": "string"
            },
            {
              "internalType": "enum Products.ProductType",
              "name": "productType",
              "type": "uint8"
            },
            {
              "internalType": "string",
              "name": "scientificName",
              "type": "string"
            },
            {
              "internalType": "string",
              "name": "usage",
              "type": "string"
            },
            {
              "internalType": "string[]",
              "name": "composition",
              "type": "string[]"
            },
            {
              "internalType": "string[]",
              "name": "sideEffects",
              "type": "string[]"
            }
          ],
          "internalType": "struct Products.Product",
          "name": "",
          "type": "tuple"
        },
        {
          "components": [
            {
              "components": [
                {
                  "internalType": "address",
                  "name": "id_",
                  "type": "address"
                },
                {
                  "internalType": "uint256",
                  "name": "date",
                  "type": "uint256"
                }
              ],
              "internalType": "struct Products.UserHistory",
              "name": "manufacturer",
              "type": "tuple"
            },
            {
              "components": [
                {
                  "internalType": "address",
                  "name": "id_",
                  "type": "address"
                },
                {
                  "internalType": "uint256",
                  "name": "date",
                  "type": "uint256"
                }
              ],
              "internalType": "struct Products.UserHistory",
              "name": "supplier",
              "type": "tuple"
            },
            {
              "components": [
                {
                  "internalType": "address",
                  "name": "id_",
                  "type": "address"
                },
                {
                  "internalType": "uint256",
                  "name": "date",
                  "type": "uint256"
                }
              ],
              "internalType": "struct Products.UserHistory",
              "name": "vendor",
              "type": "tuple"
            },
            {
              "components": [
                {
                  "internalType": "address",
                  "name": "id_",
                  "type": "address"
                },
                {
                  "internalType": "uint256",
                  "name": "date",
                  "type": "uint256"
                }
              ],
              "internalType": "struct Products.UserHistory[]",
              "name": "customers",
              "type": "tuple[]"
            }
          ],
          "internalType": "struct Products.ProductHistory",
          "name": "",
          "type": "tuple"
        }
      ],
      "stateMutability": "view",
      "type": "function",
      "constant": true
    },
    {
      "inputs": [
        {
          "components": [
            {
              "internalType": "string",
              "name": "name",
              "type": "string"
            },
            {
              "internalType": "string",
              "name": "manufacturerName",
              "type": "string"
            },
            {
              "internalType": "address",
              "name": "manufacturer",
              "type": "address"
            },
            {
              "internalType": "uint256",
              "name": "manDateEpoch",
              "type": "uint256"
            },
            {
              "internalType": "uint256",
              "name": "expDateEpoch",
              "type": "uint256"
            },
            {
              "internalType": "bool",
              "name": "isInBatch",
              "type": "bool"
            },
            {
              "internalType": "uint256",
              "name": "batchCount",
              "type": "uint256"
            },
            {
              "internalType": "string",
              "name": "barcodeId",
              "type": "string"
            },
            {
              "internalType": "string",
              "name": "productImage",
              "type": "string"
            },
            {
              "internalType": "enum Products.ProductType",
              "name": "productType",
              "type": "uint8"
            },
            {
              "internalType": "string",
              "name": "scientificName",
              "type": "string"
            },
            {
              "internalType": "string",
              "name": "usage",
              "type": "string"
            },
            {
              "internalType": "string[]",
              "name": "composition",
              "type": "string[]"
            },
            {
              "internalType": "string[]",
              "name": "sideEffects",
              "type": "string[]"
            }
          ],
          "internalType": "struct Products.Product",
          "name": "product_",
          "type": "tuple"
        },
        {
          "internalType": "uint256",
          "name": "currentTime_",
          "type": "uint256"
        }
      ],
      "name": "addProduct",
      "outputs": [],
      "stateMutability": "nonpayable",
      "type": "function"
    },
    {
      "inputs": [
        {
          "internalType": "address",
          "name": "partyId_",
          "type": "address"
        },
        {
          "internalType": "string",
          "name": "barcodeId_",
          "type": "string"
        },
        {
          "internalType": "uint256",
          "name": "currentTime_",
          "type": "uint256"
        }
      ],
      "name": "sellProduct",
      "outputs": [],
      "stateMutability": "nonpayable",
      "type": "function"
    },
    {
      "inputs": [
        {
          "components": [
            {
              "internalType": "enum Users.UserRole",
              "name": "role",
              "type": "uint8"
            },
            {
              "internalType": "address",
              "name": "id_",
              "type": "address"
            },
            {
              "internalType": "string",
              "name": "name",
              "type": "string"
            },
            {
              "internalType": "string",
              "name": "email",
              "type": "string"
            }
          ],
          "internalType": "struct Users.UserDetails",
          "name": "user_",
          "type": "tuple"
        }
      ],
      "name": "addParty",
      "outputs": [],
      "stateMutability": "nonpayable",
      "type": "function"
    },
    {
      "inputs": [
        {
          "internalType": "address",
          "name": "id_",
          "type": "address"
        }
      ],
      "name": "getUserDetails",
      "outputs": [
        {
          "components": [
            {
              "internalType": "enum Users.UserRole",
              "name": "role",
              "type": "uint8"
            },
            {
              "internalType": "address",
              "name": "id_",
              "type": "address"
            },
            {
              "internalType": "string",
              "name": "name",
              "type": "string"
            },
            {
              "internalType": "string",
              "name": "email",
              "type": "string"
            }
          ],
          "internalType": "struct Users.UserDetails",
          "name": "",
          "type": "tuple"
        }
      ],
      "stateMutability": "view",
      "type": "function",
      "constant": true
    },
    {
      "inputs": [],
      "name": "getMyDetails",
      "outputs": [
        {
          "components": [
            {
              "internalType": "enum Users.UserRole",
              "name": "role",
              "type": "uint8"
            },
            {
              "internalType": "address",
              "name": "id_",
              "type": "address"
            },
            {
              "internalType": "string",
              "name": "name",
              "type": "string"
            },
            {
              "internalType": "string",
              "name": "email",
              "type": "string"
            }
          ],
          "internalType": "struct Users.UserDetails",
          "name": "",
          "type": "tuple"
        }
      ],
      "stateMutability": "view",
      "type": "function",
      "constant": true
    },
    {
      "inputs": [],
      "name": "getMyUsersList",
      "outputs": [
        {
          "components": [
            {
              "internalType": "enum Users.UserRole",
              "name": "role",
              "type": "uint8"
            },
            {
              "internalType": "address",
              "name": "id_",
              "type": "address"
            },
            {
              "internalType": "string",
              "name": "name",
              "type": "string"
            },
            {
              "internalType": "string",
              "name": "email",
              "type": "string"
            }
          ],
          "internalType": "struct Users.UserDetails[]",
          "name": "usersList_",
          "type": "tuple[]"
        }
      ],
      "stateMutability": "view",
      "type": "function",
      "constant": true
    }
  ],
  "bytecode": "0x60806040523480156200001157600080fd5b5060405162004d6538038062004d658339810160408190526200003491620003d2565b604080516080810182526000815233602082015290810183905260608101829052620000608162000069565b50505062000515565b60208101516001600160a01b03166200008157600080fd5b80516020820151620000949190620001d6565b15620000e65760405162461bcd60e51b815260206004820152601f60248201527f53616d65207573657220776974682073616d6520726f6c652065786973747300604482015260640160405180910390fd5b6020808201516001600160a01b0316600090815290819052604090208151815483929190829060ff191660018360038111156200012757620001276200043c565b021790555060208281015182546001600160a01b0390911661010002610100600160a81b0319909116178255604083015180516200016c926001850192019062000252565b50606082015180516200018a91600284019160209091019062000252565b5050506040808201516060830151835192517fa02ce859974fc67911cca85c5c5afe5352b9c58f9dd06ff23e472e715288bf8f93620001cb93929162000480565b60405180910390a150565b60006001600160a01b038216620001ec57600080fd5b6001600160a01b0380831660009081526020819052604090208054909161010090910416158015906200024a57508360038111156200022f576200022f6200043c565b815460ff1660038111156200024857620002486200043c565b145b949350505050565b8280546200026090620004d9565b90600052602060002090601f016020900481019282620002845760008555620002cf565b82601f106200029f57805160ff1916838001178555620002cf565b82800160010185558215620002cf579182015b82811115620002cf578251825591602001919060010190620002b2565b50620002dd929150620002e1565b5090565b5b80821115620002dd5760008155600101620002e2565b634e487b7160e01b600052604160045260246000fd5b60005b838110156200032b57818101518382015260200162000311565b838111156200033b576000848401525b50505050565b600082601f8301126200035357600080fd5b81516001600160401b0380821115620003705762000370620002f8565b604051601f8301601f19908116603f011681019082821181831017156200039b576200039b620002f8565b81604052838152866020858801011115620003b557600080fd5b620003c88460208301602089016200030e565b9695505050505050565b60008060408385031215620003e657600080fd5b82516001600160401b0380821115620003fe57600080fd5b6200040c8683870162000341565b935060208501519150808211156200042357600080fd5b50620004328582860162000341565b9150509250929050565b634e487b7160e01b600052602160045260246000fd5b600081518084526200046c8160208601602086016200030e565b601f01601f19169290920160200192915050565b60608152600062000495606083018662000452565b8281036020840152620004a9818662000452565b91505060048310620004cb57634e487b7160e01b600052602160045260246000fd5b826040830152949350505050565b600181811c90821680620004ee57607f821691505b6020821081036200050f57634e487b7160e01b600052602260045260246000fd5b50919050565b61484080620005256000396000f3fe608060405234801561001057600080fd5b50600436106100935760003560e01c8063431bbb7e11610066578063431bbb7e146100ff5780638248581e14610114578063cc3d967b14610127578063e386cb5f1461013a578063fdca4ca31461014f57600080fd5b806302ee3a5214610098578063067f046a146100b657806306b7dd71146100cb57806316756b0e146100de575b600080fd5b6100a0610157565b6040516100ad9190613ecf565b60405180910390f35b6100c96100c4366004614051565b61074c565b005b6100c96100d93660046140a8565b61075c565b6100f16100ec366004614161565b610769565b6040516100ad929190614196565b61010761078b565b6040516100ad91906142e8565b6100c96101223660046143c0565b6107c3565b610107610135366004614590565b6107d1565b61014261080a565b6040516100ad91906145ab565b6100a0610815565b60606004805480602002602001604051908101604052809291908181526020016000905b8282101561074357838290600052602060002090600e0201604051806101c00160405290816000820180546101af90614600565b80601f01602080910402602001604051908101604052809291908181526020018280546101db90614600565b80156102285780601f106101fd57610100808354040283529160200191610228565b820191906000526020600020905b81548152906001019060200180831161020b57829003601f168201915b5050505050815260200160018201805461024190614600565b80601f016020809104026020016040519081016040528092919081815260200182805461026d90614600565b80156102ba5780601f1061028f576101008083540402835291602001916102ba565b820191906000526020600020905b81548152906001019060200180831161029d57829003601f168201915b505050918352505060028201546001600160a01b031660208201526003820154604082015260048201546060820152600582015460ff1615156080820152600682015460a082015260078201805460c09092019161031790614600565b80601f016020809104026020016040519081016040528092919081815260200182805461034390614600565b80156103905780601f1061036557610100808354040283529160200191610390565b820191906000526020600020905b81548152906001019060200180831161037357829003601f168201915b505050505081526020016008820180546103a990614600565b80601f01602080910402602001604051908101604052809291908181526020018280546103d590614600565b80156104225780601f106103f757610100808354040283529160200191610422565b820191906000526020600020905b81548152906001019060200180831161040557829003601f168201915b5050509183525050600982015460209091019060ff16600481111561044957610449613d0c565b600481111561045a5761045a613d0c565b8152602001600a8201805461046e90614600565b80601f016020809104026020016040519081016040528092919081815260200182805461049a90614600565b80156104e75780601f106104bc576101008083540402835291602001916104e7565b820191906000526020600020905b8154815290600101906020018083116104ca57829003601f168201915b50505050508152602001600b8201805461050090614600565b80601f016020809104026020016040519081016040528092919081815260200182805461052c90614600565b80156105795780601f1061054e57610100808354040283529160200191610579565b820191906000526020600020905b81548152906001019060200180831161055c57829003601f168201915b50505050508152602001600c8201805480602002602001604051908101604052809291908181526020016000905b828210156106535783829060005260206000200180546105c690614600565b80601f01602080910402602001604051908101604052809291908181526020018280546105f290614600565b801561063f5780601f106106145761010080835404028352916020019161063f565b820191906000526020600020905b81548152906001019060200180831161062257829003601f168201915b5050505050815260200190600101906105a7565b505050508152602001600d8201805480602002602001604051908101604052809291908181526020016000905b8282101561072c57838290600052602060002001805461069f90614600565b80601f01602080910402602001604051908101604052809291908181526020018280546106cb90614600565b80156107185780601f106106ed57610100808354040283529160200191610718565b820191906000526020600020905b8154815290600101906020018083116106fb57829003601f168201915b505050505081526020019060010190610680565b50505050815250508152602001906001019061017b565b50505050905090565b61075783838361081f565b505050565b61076681336112b2565b50565b6107716139de565b610779613a69565b610782836114f5565b91509150915091565b6107b560408051608081019091528060008152600060208201526060604082018190529081015290565b6107be33611be4565b905090565b6107cd8282611c46565b5050565b6107fb60408051608081019091528060008152600060208201526060604082018190529081015290565b61080482611be4565b92915050565b60606107be3361239a565b60606107be6129da565b8160006005826040516108329190614634565b908152602001604051809103902090506108e781600701805461085490614600565b80601f016020809104026020016040519081016040528092919081815260200182805461088090614600565b80156108cd5780601f106108a2576101008083540402835291602001916108cd565b820191906000526020600020905b8154815290600101906020018083116108b057829003601f168201915b50505050506040518060200160405280600081525061312b565b156108f157600080fd5b6108fa85613184565b61093d5760405162461bcd60e51b815260206004820152600f60248201526e14185c9d1e481b9bdd08199bdd5b99608a1b60448201526064015b60405180910390fd5b6001600160a01b0385166000908152602081905260408082208151608081019092528054829060ff16600381111561097757610977613d0c565b600381111561098857610988613d0c565b8152815461010090046001600160a01b031660208201526001820180546040909201916109b490614600565b80601f01602080910402602001604051908101604052809291908181526020018280546109e090614600565b8015610a2d5780601f10610a0257610100808354040283529160200191610a2d565b820191906000526020600020905b815481529060010190602001808311610a1057829003601f168201915b50505050508152602001600282018054610a4690614600565b80601f0160208091040260200160405190810160405280929190818152602001828054610a7290614600565b8015610abf5780601f10610a9457610100808354040283529160200191610abf565b820191906000526020600020905b815481529060010190602001808311610aa257829003601f168201915b50505050508152505090506000600586604051610adc9190614634565b9081526020016040518091039020604051806101c0016040529081600082018054610b0690614600565b80601f0160208091040260200160405190810160405280929190818152602001828054610b3290614600565b8015610b7f5780601f10610b5457610100808354040283529160200191610b7f565b820191906000526020600020905b815481529060010190602001808311610b6257829003601f168201915b50505050508152602001600182018054610b9890614600565b80601f0160208091040260200160405190810160405280929190818152602001828054610bc490614600565b8015610c115780601f10610be657610100808354040283529160200191610c11565b820191906000526020600020905b815481529060010190602001808311610bf457829003601f168201915b505050918352505060028201546001600160a01b031660208201526003820154604082015260048201546060820152600582015460ff1615156080820152600682015460a082015260078201805460c090920191610c6e90614600565b80601f0160208091040260200160405190810160405280929190818152602001828054610c9a90614600565b8015610ce75780601f10610cbc57610100808354040283529160200191610ce7565b820191906000526020600020905b815481529060010190602001808311610cca57829003601f168201915b50505050508152602001600882018054610d0090614600565b80601f0160208091040260200160405190810160405280929190818152602001828054610d2c90614600565b8015610d795780601f10610d4e57610100808354040283529160200191610d79565b820191906000526020600020905b815481529060010190602001808311610d5c57829003601f168201915b5050509183525050600982015460209091019060ff166004811115610da057610da0613d0c565b6004811115610db157610db1613d0c565b8152602001600a82018054610dc590614600565b80601f0160208091040260200160405190810160405280929190818152602001828054610df190614600565b8015610e3e5780601f10610e1357610100808354040283529160200191610e3e565b820191906000526020600020905b815481529060010190602001808311610e2157829003601f168201915b50505050508152602001600b82018054610e5790614600565b80601f0160208091040260200160405190810160405280929190818152602001828054610e8390614600565b8015610ed05780601f10610ea557610100808354040283529160200191610ed0565b820191906000526020600020905b815481529060010190602001808311610eb357829003601f168201915b50505050508152602001600c8201805480602002602001604051908101604052809291908181526020016000905b82821015610faa578382906000526020600020018054610f1d90614600565b80601f0160208091040260200160405190810160405280929190818152602001828054610f4990614600565b8015610f965780601f10610f6b57610100808354040283529160200191610f96565b820191906000526020600020905b815481529060010190602001808311610f7957829003601f168201915b505050505081526020019060010190610efe565b505050508152602001600d8201805480602002602001604051908101604052809291908181526020016000905b82821015611083578382906000526020600020018054610ff690614600565b80601f016020809104026020016040519081016040528092919081815260200182805461102290614600565b801561106f5780601f106110445761010080835404028352916020019161106f565b820191906000526020600020905b81548152906001019060200180831161105257829003601f168201915b505050505081526020019060010190610fd7565b50505091525050604080518082019091526020808501516001600160a01b0316825281018790529091506001835160038111156110c2576110c2613d0c565b0361111957806007886040516110d89190614634565b9081526040516020918190038201902082516002820180546001600160a01b0319166001600160a01b03909216919091179055910151600390910155611243565b60028351600381111561112e5761112e613d0c565b0361118557806007886040516111449190614634565b9081526040516020918190038201902082516004820180546001600160a01b0319166001600160a01b03909216919091179055910151600590910155611243565b60038351600381111561119a5761119a613d0c565b03611205576007876040516111af9190614634565b90815260405160209181900382019020600601805460018082018355600092835291839020845160029092020180546001600160a01b0319166001600160a01b0390921691909117815591830151910155611243565b60405162461bcd60e51b81526020600482015260136024820152722737ba103b30b634b21037b832b930ba34b7b760691b6044820152606401610934565b61124e338989613347565b7fb35a1337de52ab961a17a7636b02c4b0b995bd6c25887015aada6480addd42e2826000015183602001518461014001518560e00151876040015188606001516040516112a096959493929190614650565b60405180910390a15050505050505050565b6001600160a01b0381166112c557600080fd5b60208201516001600160a01b03166112dc57600080fd5b60006112e78261363d565b90506000815160038111156112fe576112fe613d0c565b14801561131d575060018351600381111561131b5761131b613d0c565b145b156113dd576001600160a01b0382166000908152600160208181526040832080548084018255908452922085516003938402909101805487949193849260ff1990921691849081111561137257611372613d0c565b021790555060208281015182546001600160a01b0390911661010002610100600160a81b0319909116178255604083015180516113b59260018501920190613ad2565b50606082015180516113d1916002840191602090910190613ad2565b5050506107578361380d565b6001815160038111156113f2576113f2613d0c565b148015611411575060028351600381111561140f5761140f613d0c565b145b1561146b576001600160a01b038216600090815260026020908152604082208054600181810183559184529190922085516003928302909101805487949193849260ff199092169190849081111561137257611372613d0c565b60028151600381111561148057611480613d0c565b14801561149f575060038351600381111561149d5761149d613d0c565b145b15611205576001600160a01b0382166000908152600360208181526040832080546001818101835591855291909320865191830201805487949193849260ff199092169190849081111561137257611372613d0c565b6114fd6139de565b611505613a69565b60006005846040516115179190614634565b9081526020016040518091039020905060006007856040516115399190614634565b90815260200160405180910390209050818181604051806101c001604052908160008201805461156890614600565b80601f016020809104026020016040519081016040528092919081815260200182805461159490614600565b80156115e15780601f106115b6576101008083540402835291602001916115e1565b820191906000526020600020905b8154815290600101906020018083116115c457829003601f168201915b505050505081526020016001820180546115fa90614600565b80601f016020809104026020016040519081016040528092919081815260200182805461162690614600565b80156116735780601f1061164857610100808354040283529160200191611673565b820191906000526020600020905b81548152906001019060200180831161165657829003601f168201915b505050918352505060028201546001600160a01b031660208201526003820154604082015260048201546060820152600582015460ff1615156080820152600682015460a082015260078201805460c0909201916116d090614600565b80601f01602080910402602001604051908101604052809291908181526020018280546116fc90614600565b80156117495780601f1061171e57610100808354040283529160200191611749565b820191906000526020600020905b81548152906001019060200180831161172c57829003601f168201915b5050505050815260200160088201805461176290614600565b80601f016020809104026020016040519081016040528092919081815260200182805461178e90614600565b80156117db5780601f106117b0576101008083540402835291602001916117db565b820191906000526020600020905b8154815290600101906020018083116117be57829003601f168201915b5050509183525050600982015460209091019060ff16600481111561180257611802613d0c565b600481111561181357611813613d0c565b8152602001600a8201805461182790614600565b80601f016020809104026020016040519081016040528092919081815260200182805461185390614600565b80156118a05780601f10611875576101008083540402835291602001916118a0565b820191906000526020600020905b81548152906001019060200180831161188357829003601f168201915b50505050508152602001600b820180546118b990614600565b80601f01602080910402602001604051908101604052809291908181526020018280546118e590614600565b80156119325780601f1061190757610100808354040283529160200191611932565b820191906000526020600020905b81548152906001019060200180831161191557829003601f168201915b50505050508152602001600c8201805480602002602001604051908101604052809291908181526020016000905b82821015611a0c57838290600052602060002001805461197f90614600565b80601f01602080910402602001604051908101604052809291908181526020018280546119ab90614600565b80156119f85780601f106119cd576101008083540402835291602001916119f8565b820191906000526020600020905b8154815290600101906020018083116119db57829003601f168201915b505050505081526020019060010190611960565b505050508152602001600d8201805480602002602001604051908101604052809291908181526020016000905b82821015611ae5578382906000526020600020018054611a5890614600565b80601f0160208091040260200160405190810160405280929190818152602001828054611a8490614600565b8015611ad15780601f10611aa657610100808354040283529160200191611ad1565b820191906000526020600020905b815481529060010190602001808311611ab457829003601f168201915b505050505081526020019060010190611a39565b505050915250506040805160c08101825283546001600160a01b0390811660808301908152600186015460a0840152825282518084018452600286015482168152600386015460208281019190915280840191909152835180850185526004870154909216825260058601548282015282840191909152600685018054845181840281018401909552808552949650919385936060860193909290919060009084015b82821015611bd0576000848152602090819020604080518082019091526002850290910180546001600160a01b03168252600190810154828401529083529092019101611b88565b505050915250929890975095505050505050565b611c0e60408051608081019091528060008152600060208201526060604082018190529081015290565b6001600160a01b038216611c2157600080fd5b6000611c2c8361363d565b60208101519091506001600160a01b031661080457600080fd5b33611c935760405162461bcd60e51b815260206004820152601960248201527f53656e6465722773206164647265737320697320456d707479000000000000006044820152606401610934565b336000908152602081905260408082208151608081019092528054829060ff166003811115611cc457611cc4613d0c565b6003811115611cd557611cd5613d0c565b8152815461010090046001600160a01b03166020820152600182018054604090920191611d0190614600565b80601f0160208091040260200160405190810160405280929190818152602001828054611d2d90614600565b8015611d7a5780601f10611d4f57610100808354040283529160200191611d7a565b820191906000526020600020905b815481529060010190602001808311611d5d57829003601f168201915b50505050508152602001600282018054611d9390614600565b80601f0160208091040260200160405190810160405280929190818152602001828054611dbf90614600565b8015611e0c5780601f10611de157610100808354040283529160200191611e0c565b820191906000526020600020905b815481529060010190602001808311611def57829003601f168201915b5050509190925250505060208101519091506001600160a01b0316611e735760405162461bcd60e51b815260206004820152601760248201527f557365722773206164647265737320697320456d7074790000000000000000006044820152606401610934565b600081516003811115611e8857611e88613d0c565b14611ed55760405162461bcd60e51b815260206004820152601960248201527f4f6e6c79206d616e7566616374757265722063616e20616464000000000000006044820152606401610934565b8260e001516000600582604051611eec9190614634565b90815260200160405180910390209050611f0e81600701805461085490614600565b611f1757600080fd5b60408501516001600160a01b03163314611f7e5760405162461bcd60e51b815260206004820152602260248201527f4f6e6c79206d616e7566616374757265722063616e206164642070726f647563604482015261747360f01b6064820152608401610934565b60048054600181018255600091909152855180518792600e027f8a35acfbc15ff81a39ae7d344fd709f28e8600b4aa8c65c6b64bfe7fe36bd19b0191611fc991839160200190613ad2565b506020828101518051611fe29260018501920190613ad2565b5060408201516002820180546001600160a01b0319166001600160a01b03909216919091179055606082015160038201556080820151600482015560a082015160058201805460ff191691151591909117905560c0820151600682015560e0820151805161205a916007840191602090910190613ad2565b506101008201518051612077916008840191602090910190613ad2565b5061012082015160098201805460ff1916600183600481111561209c5761209c613d0c565b021790555061014082015180516120bd91600a840191602090910190613ad2565b5061016082015180516120da91600b840191602090910190613ad2565b5061018082015180516120f791600c840191602090910190613b56565b506101a0820151805161211491600d840191602090910190613b56565b5050508460058660e0015160405161212c9190614634565b90815260200160405180910390206000820151816000019080519060200190612156929190613ad2565b50602082810151805161216f9260018501920190613ad2565b5060408201516002820180546001600160a01b0319166001600160a01b03909216919091179055606082015160038201556080820151600482015560a082015160058201805460ff191691151591909117905560c0820151600682015560e082015180516121e7916007840191602090910190613ad2565b506101008201518051612204916008840191602090910190613ad2565b5061012082015160098201805460ff1916600183600481111561222957612229613d0c565b0217905550610140820151805161224a91600a840191602090910190613ad2565b50610160820151805161226791600b840191602090910190613ad2565b50610180820151805161228491600c840191602090910190613b56565b506101a082015180516122a191600d840191602090910190613b56565b50506040805180820182523381526020810187905260e088015191519092506007916122cc91614634565b9081526040805160209281900383019020835181546001600160a01b0319166001600160a01b03909116178155928201516001938401553360009081526006835290812060e0890151815494850182559082529082902081516123389491909101929190910190613ad2565b507fdcabd93b6feff0c53beccf485017f1bce69f798b8f3f3ae4d88d5c2a536c1dfe856000015186602001518761014001518860e0015189606001518a6080015160405161238b969594939291906146d2565b60405180910390a15050505050565b60606001600160a01b0382166123e05760405162461bcd60e51b815260206004820152600b60248201526a496420697320656d70747960a81b6044820152606401610934565b60006123eb8361363d565b905060008151600381111561240257612402613d0c565b036125ec576001600160a01b038316600090815260016020908152604080832080548251818502810185019093528083529193909284015b828210156125e157838290600052602060002090600302016040518060800160405290816000820160009054906101000a900460ff16600381111561248157612481613d0c565b600381111561249257612492613d0c565b8152815461010090046001600160a01b031660208201526001820180546040909201916124be90614600565b80601f01602080910402602001604051908101604052809291908181526020018280546124ea90614600565b80156125375780601f1061250c57610100808354040283529160200191612537565b820191906000526020600020905b81548152906001019060200180831161251a57829003601f168201915b5050505050815260200160028201805461255090614600565b80601f016020809104026020016040519081016040528092919081815260200182805461257c90614600565b80156125c95780601f1061259e576101008083540402835291602001916125c9565b820191906000526020600020905b8154815290600101906020018083116125ac57829003601f168201915b5050505050815250508152602001906001019061243a565b5050505091506129d4565b60018151600381111561260157612601613d0c565b036127e0576001600160a01b038316600090815260026020908152604080832080548251818502810185019093528083529193909284015b828210156125e157838290600052602060002090600302016040518060800160405290816000820160009054906101000a900460ff16600381111561268057612680613d0c565b600381111561269157612691613d0c565b8152815461010090046001600160a01b031660208201526001820180546040909201916126bd90614600565b80601f01602080910402602001604051908101604052809291908181526020018280546126e990614600565b80156127365780601f1061270b57610100808354040283529160200191612736565b820191906000526020600020905b81548152906001019060200180831161271957829003601f168201915b5050505050815260200160028201805461274f90614600565b80601f016020809104026020016040519081016040528092919081815260200182805461277b90614600565b80156127c85780601f1061279d576101008083540402835291602001916127c8565b820191906000526020600020905b8154815290600101906020018083116127ab57829003601f168201915b50505050508152505081526020019060010190612639565b6002815160038111156127f5576127f5613d0c565b03611205576001600160a01b038316600090815260036020908152604080832080548251818502810185019093528083529193909284015b828210156125e157838290600052602060002090600302016040518060800160405290816000820160009054906101000a900460ff16600381111561287457612874613d0c565b600381111561288557612885613d0c565b8152815461010090046001600160a01b031660208201526001820180546040909201916128b190614600565b80601f01602080910402602001604051908101604052809291908181526020018280546128dd90614600565b801561292a5780601f106128ff5761010080835404028352916020019161292a565b820191906000526020600020905b81548152906001019060200180831161290d57829003601f168201915b5050505050815260200160028201805461294390614600565b80601f016020809104026020016040519081016040528092919081815260200182805461296f90614600565b80156129bc5780601f10612991576101008083540402835291602001916129bc565b820191906000526020600020905b81548152906001019060200180831161299f57829003601f168201915b5050505050815250508152602001906001019061282d565b50919050565b336000908152600660209081526040808320805482518185028101850190935280835260609493849084015b82821015612ab2578382906000526020600020018054612a2590614600565b80601f0160208091040260200160405190810160405280929190818152602001828054612a5190614600565b8015612a9e5780601f10612a7357610100808354040283529160200191612a9e565b820191906000526020600020905b815481529060010190602001808311612a8157829003601f168201915b505050505081526020019060010190612a06565b5050505090506000815167ffffffffffffffff811115612ad457612ad4613f4d565b604051908082528060200260200182016040528015612b0d57816020015b612afa6139de565b815260200190600190039081612af25790505b50905060005b8251811015613124576005838281518110612b3057612b30614735565b6020026020010151604051612b459190614634565b9081526020016040518091039020604051806101c0016040529081600082018054612b6f90614600565b80601f0160208091040260200160405190810160405280929190818152602001828054612b9b90614600565b8015612be85780601f10612bbd57610100808354040283529160200191612be8565b820191906000526020600020905b815481529060010190602001808311612bcb57829003601f168201915b50505050508152602001600182018054612c0190614600565b80601f0160208091040260200160405190810160405280929190818152602001828054612c2d90614600565b8015612c7a5780601f10612c4f57610100808354040283529160200191612c7a565b820191906000526020600020905b815481529060010190602001808311612c5d57829003601f168201915b505050918352505060028201546001600160a01b031660208201526003820154604082015260048201546060820152600582015460ff1615156080820152600682015460a082015260078201805460c090920191612cd790614600565b80601f0160208091040260200160405190810160405280929190818152602001828054612d0390614600565b8015612d505780601f10612d2557610100808354040283529160200191612d50565b820191906000526020600020905b815481529060010190602001808311612d3357829003601f168201915b50505050508152602001600882018054612d6990614600565b80601f0160208091040260200160405190810160405280929190818152602001828054612d9590614600565b8015612de25780601f10612db757610100808354040283529160200191612de2565b820191906000526020600020905b815481529060010190602001808311612dc557829003601f168201915b5050509183525050600982015460209091019060ff166004811115612e0957612e09613d0c565b6004811115612e1a57612e1a613d0c565b8152602001600a82018054612e2e90614600565b80601f0160208091040260200160405190810160405280929190818152602001828054612e5a90614600565b8015612ea75780601f10612e7c57610100808354040283529160200191612ea7565b820191906000526020600020905b815481529060010190602001808311612e8a57829003601f168201915b50505050508152602001600b82018054612ec090614600565b80601f0160208091040260200160405190810160405280929190818152602001828054612eec90614600565b8015612f395780601f10612f0e57610100808354040283529160200191612f39565b820191906000526020600020905b815481529060010190602001808311612f1c57829003601f168201915b50505050508152602001600c8201805480602002602001604051908101604052809291908181526020016000905b82821015613013578382906000526020600020018054612f8690614600565b80601f0160208091040260200160405190810160405280929190818152602001828054612fb290614600565b8015612fff5780601f10612fd457610100808354040283529160200191612fff565b820191906000526020600020905b815481529060010190602001808311612fe257829003601f168201915b505050505081526020019060010190612f67565b505050508152602001600d8201805480602002602001604051908101604052809291908181526020016000905b828210156130ec57838290600052602060002001805461305f90614600565b80601f016020809104026020016040519081016040528092919081815260200182805461308b90614600565b80156130d85780601f106130ad576101008083540402835291602001916130d8565b820191906000526020600020905b8154815290600101906020018083116130bb57829003601f168201915b505050505081526020019060010190613040565b505050508152505082828151811061310657613106614735565b6020026020010181905250808061311c90614761565b915050612b13565b5092915050565b60008160405160200161313e9190614634565b60405160208183030381529060405280519060200120836040516020016131659190614634565b6040516020818303038152906040528051906020012014905092915050565b6000806001600160a01b03831661319b5792915050565b6001600160a01b0383166000908152602081905260408082208151608081019092528054829060ff1660038111156131d5576131d5613d0c565b60038111156131e6576131e6613d0c565b8152815461010090046001600160a01b0316602082015260018201805460409092019161321290614600565b80601f016020809104026020016040519081016040528092919081815260200182805461323e90614600565b801561328b5780601f106132605761010080835404028352916020019161328b565b820191906000526020600020905b81548152906001019060200180831161326e57829003601f168201915b505050505081526020016002820180546132a490614600565b80601f01602080910402602001604051908101604052809291908181526020018280546132d090614600565b801561331d5780601f106132f25761010080835404028352916020019161331d565b820191906000526020600020905b81548152906001019060200180831161330057829003601f168201915b5050509190925250505060208101519091506001600160a01b031615613124575060019392505050565b6001600160a01b038216600090815260066020908152604082208054600181018255908352918190208351613383939190910191840190613ad2565b506001600160a01b038316600090815260066020908152604080832080548251818502810185019093528083529192909190849084015b828210156134665783829060005260206000200180546133d990614600565b80601f016020809104026020016040519081016040528092919081815260200182805461340590614600565b80156134525780601f1061342757610100808354040283529160200191613452565b820191906000526020600020905b81548152906001019060200180831161343557829003601f168201915b5050505050815260200190600101906133ba565b50505050905060008151600161347c919061477a565b905060005b82518110156134cc576134ad83828151811061349f5761349f614735565b60200260200101518561312b565b156134ba578091506134cc565b806134c481614761565b915050613481565b50815181106134dd576134dd614792565b815160010361350c576001600160a01b038516600090815260066020526040812061350791613baf565b613636565b6001600160a01b03851660009081526006602052604090208251613532906001906147a8565b8154811061354257613542614735565b9060005260206000200160066000876001600160a01b03166001600160a01b03168152602001908152602001600020828154811061358257613582614735565b9060005260206000200190805461359890614600565b6135a3929190613bcd565b506001600160a01b038516600090815260066020526040902082516135ca906001906147a8565b815481106135da576135da614735565b9060005260206000200160006135f09190613c48565b6001600160a01b0385166000908152600660205260409020805480613617576136176147bf565b6001900381819060005260206000200160006136339190613c48565b90555b5050505050565b61366760408051608081019091528060008152600060208201526060604082018190529081015290565b6001600160a01b03821661367a57600080fd5b6001600160a01b038216600090815260208190526040908190208151608081019092528054829060ff1660038111156136b5576136b5613d0c565b60038111156136c6576136c6613d0c565b8152815461010090046001600160a01b031660208201526001820180546040909201916136f290614600565b80601f016020809104026020016040519081016040528092919081815260200182805461371e90614600565b801561376b5780601f106137405761010080835404028352916020019161376b565b820191906000526020600020905b81548152906001019060200180831161374e57829003601f168201915b5050505050815260200160028201805461378490614600565b80601f01602080910402602001604051908101604052809291908181526020018280546137b090614600565b80156137fd5780601f106137d2576101008083540402835291602001916137fd565b820191906000526020600020905b8154815290600101906020018083116137e057829003601f168201915b5050505050815250509050919050565b60208101516001600160a01b031661382457600080fd5b6138368160000151826020015161396a565b156138835760405162461bcd60e51b815260206004820152601f60248201527f53616d65207573657220776974682073616d6520726f6c6520657869737473006044820152606401610934565b6020808201516001600160a01b0316600090815290819052604090208151815483929190829060ff191660018360038111156138c1576138c1613d0c565b021790555060208281015182546001600160a01b0390911661010002610100600160a81b0319909116178255604083015180516139049260018501920190613ad2565b5060608201518051613920916002840191602090910190613ad2565b5050506040808201516060830151835192517fa02ce859974fc67911cca85c5c5afe5352b9c58f9dd06ff23e472e715288bf8f9361395f9392916147d5565b60405180910390a150565b60006001600160a01b03821661397f57600080fd5b6001600160a01b0380831660009081526020819052604090208054909161010090910416158015906139d657508360038111156139be576139be613d0c565b815460ff1660038111156139d4576139d4613d0c565b145b949350505050565b604051806101c00160405280606081526020016060815260200160006001600160a01b03168152602001600081526020016000815260200160001515815260200160008152602001606081526020016060815260200160006004811115613a4757613a47613d0c565b8152602001606081526020016060815260200160608152602001606081525090565b6040805160c0810190915260006080820181815260a083019190915281908152602001613aa6604080518082019091526000808252602082015290565b8152602001613ac5604080518082019091526000808252602082015290565b8152602001606081525090565b828054613ade90614600565b90600052602060002090601f016020900481019282613b005760008555613b46565b82601f10613b1957805160ff1916838001178555613b46565b82800160010185558215613b46579182015b82811115613b46578251825591602001919060010190613b2b565b50613b52929150613c7e565b5090565b828054828255906000526020600020908101928215613ba3579160200282015b82811115613ba35782518051613b93918491602090910190613ad2565b5091602001919060010190613b76565b50613b52929150613c93565b50805460008255906000526020600020908101906107669190613c93565b828054613bd990614600565b90600052602060002090601f016020900481019282613bfb5760008555613b46565b82601f10613c0c5780548555613b46565b82800160010185558215613b4657600052602060002091601f016020900482015b82811115613b46578254825591600101919060010190613c2d565b508054613c5490614600565b6000825580601f10613c64575050565b601f01602090049060005260206000209081019061076691905b5b80821115613b525760008155600101613c7f565b80821115613b52576000613ca78282613c48565b50600101613c93565b60005b83811015613ccb578181015183820152602001613cb3565b83811115613cda576000848401525b50505050565b60008151808452613cf8816020860160208601613cb0565b601f01601f19169290920160200192915050565b634e487b7160e01b600052602160045260246000fd5b60058110613d3257613d32613d0c565b9052565b600082825180855260208086019550808260051b84010181860160005b84811015613d8157601f19868403018952613d6f838351613ce0565b98840198925090830190600101613d53565b5090979650505050505050565b60006101c08251818552613da482860182613ce0565b91505060208301518482036020860152613dbe8282613ce0565b9150506040830151613ddb60408601826001600160a01b03169052565b50606083015160608501526080830151608085015260a0830151613e0360a086018215159052565b5060c083015160c085015260e083015184820360e0860152613e258282613ce0565b9150506101008084015185830382870152613e408382613ce0565b9250505061012080840151613e5782870182613d22565b50506101408084015185830382870152613e718382613ce0565b925050506101608084015185830382870152613e8d8382613ce0565b925050506101808084015185830382870152613ea98382613d36565b925050506101a08084015185830382870152613ec58382613d36565b9695505050505050565b6000602080830181845280855180835260408601915060408160051b870101925083870160005b82811015613f2457603f19888603018452613f12858351613d8e565b94509285019290850190600101613ef6565b5092979650505050505050565b80356001600160a01b0381168114613f4857600080fd5b919050565b634e487b7160e01b600052604160045260246000fd5b6040516080810167ffffffffffffffff81118282101715613f8657613f86613f4d565b60405290565b6040516101c0810167ffffffffffffffff81118282101715613f8657613f86613f4d565b604051601f8201601f1916810167ffffffffffffffff81118282101715613fd957613fd9613f4d565b604052919050565b600082601f830112613ff257600080fd5b813567ffffffffffffffff81111561400c5761400c613f4d565b61401f601f8201601f1916602001613fb0565b81815284602083860101111561403457600080fd5b816020850160208301376000918101602001919091529392505050565b60008060006060848603121561406657600080fd5b61406f84613f31565b9250602084013567ffffffffffffffff81111561408b57600080fd5b61409786828701613fe1565b925050604084013590509250925092565b6000602082840312156140ba57600080fd5b813567ffffffffffffffff808211156140d257600080fd5b90830190608082860312156140e657600080fd5b6140ee613f63565b8235600481106140fd57600080fd5b815261410b60208401613f31565b602082015260408301358281111561412257600080fd5b61412e87828601613fe1565b60408301525060608301358281111561414657600080fd5b61415287828601613fe1565b60608301525095945050505050565b60006020828403121561417357600080fd5b813567ffffffffffffffff81111561418a57600080fd5b6139d684828501613fe1565b600060408083526141a981840186613d8e565b60208482038186015260e082016141d483885180516001600160a01b03168252602090810151910152565b818701516141f78585018280516001600160a01b03168252602090810151910152565b508387015180516001600160a01b031660808501526020015160a0840152606087015160e060c085015280519182905282810193600092610100909101905b808410156142705761425c82875180516001600160a01b03168252602090810151910152565b948401946001939093019290860190614236565b509998505050505050505050565b60048110613d3257613d32613d0c565b61429982825161427e565b60018060a01b03602082015116602083015260006040820151608060408501526142c66080850182613ce0565b9050606083015184820360608601526142df8282613ce0565b95945050505050565b6020815260006142fb602083018461428e565b9392505050565b80358015158114613f4857600080fd5b803560058110613f4857600080fd5b600082601f83011261433257600080fd5b8135602067ffffffffffffffff8083111561434f5761434f613f4d565b8260051b61435e838201613fb0565b938452858101830193838101908886111561437857600080fd5b84880192505b858310156143b4578235848111156143965760008081fd5b6143a48a87838c0101613fe1565b835250918401919084019061437e565b98975050505050505050565b600080604083850312156143d357600080fd5b823567ffffffffffffffff808211156143eb57600080fd5b908401906101c0828703121561440057600080fd5b614408613f8c565b82358281111561441757600080fd5b61442388828601613fe1565b82525060208301358281111561443857600080fd5b61444488828601613fe1565b60208301525061445660408401613f31565b6040820152606083013560608201526080830135608082015261447b60a08401614302565b60a082015260c083013560c082015260e08301358281111561449c57600080fd5b6144a888828601613fe1565b60e08301525061010080840135838111156144c257600080fd5b6144ce89828701613fe1565b8284015250506101206144e2818501614312565b9082015261014083810135838111156144fa57600080fd5b61450689828701613fe1565b828401525050610160808401358381111561452057600080fd5b61452c89828701613fe1565b828401525050610180808401358381111561454657600080fd5b61455289828701614321565b8284015250506101a0808401358381111561456c57600080fd5b61457889828701614321565b91830191909152509660209590950135955050505050565b6000602082840312156145a257600080fd5b6142fb82613f31565b6000602080830181845280855180835260408601915060408160051b870101925083870160005b82811015613f2457603f198886030184526145ee85835161428e565b945092850192908501906001016145d2565b600181811c9082168061461457607f821691505b6020821081036129d457634e487b7160e01b600052602260045260246000fd5b60008251614646818460208701613cb0565b9190910192915050565b60c08152600061466360c0830189613ce0565b82810360208401526146758189613ce0565b905082810360408401526146898188613ce0565b9050828103606084015261469d8187613ce0565b905082810360808401526146b18186613ce0565b905082810360a08401526146c58185613ce0565b9998505050505050505050565b60c0815260006146e560c0830189613ce0565b82810360208401526146f78189613ce0565b9050828103604084015261470b8188613ce0565b9050828103606084015261471f8187613ce0565b6080840195909552505060a00152949350505050565b634e487b7160e01b600052603260045260246000fd5b634e487b7160e01b600052601160045260246000fd5b6000600182016147735761477361474b565b5060010190565b6000821982111561478d5761478d61474b565b500190565b634e487b7160e01b600052600160045260246000fd5b6000828210156147ba576147ba61474b565b500390565b634e487b7160e01b600052603160045260246000fd5b6060815260006147e86060830186613ce0565b82810360208401526147fa8186613ce0565b9150506139d6604083018461427e56fea264697066735822122027f8ac5e125e28aee8e34f265a400acbb350ea238215e101048a79212fbf1e2c64736f6c634300080d0033",
  "immutableReferences": {},
  "source": "// SPDX-License-Identifier: GPL-3.0\npragma experimental ABIEncoderV2;\npragma solidity >=0.4.25 <0.9.0;\n\nimport \"./Users.sol\";\nimport \"./Products.sol\";\n\n/**\n * @title SupplyChain\n * @author Suresh Konakanchi | GeekyAnts\n * @dev Implements the transparency in the supply chain to\n * understand the actual user & the flow of the products/medicines\n */\ncontract SupplyChain is Users, Products {\n    /**\n     * @dev Create a new SupplyChain with the provided 'manufacturer'\n     * @param name_ Name of the manufacturer\n     * @param email_ Email of the manufacturer\n     */\n    constructor(string memory name_, string memory email_) {\n        UserDetails memory mn_ = UserDetails({\n            role: UserRole.Manufacturer,\n            id_: msg.sender,\n            name: name_,\n            email: email_\n        });\n        add(mn_);\n    }\n\n    /**\n     * @dev To get All the products list.\n     * @return productsList All the products that were added so far\n     */\n    function getAllProducts() public view returns (Product[] memory) {\n        return products;\n    }\n\n    /**\n     * @dev To get all the products linked a particular user\n     * @return productsList All the products that were linked to current logged-in user\n     */\n    function getMyProducts() public view returns (Product[] memory) {\n        return getUserProducts();\n    }\n\n    /**\n     * @dev Get single product\n     * @param barcodeId_ Unique ID of the product\n     * @return product_ Details of the product & it's timeline\n     * @return history_ product lifecycle, who purchased when\n     */\n    function getSingleProduct(string memory barcodeId_)\n        public\n        view\n        returns (Product memory, ProductHistory memory)\n    {\n        return getSpecificProduct(barcodeId_);\n    }\n\n    /**\n     * @dev Adds new product to the products list\n     * @param product_ unique ID of the product\n     * @param currentTime_ Current Date, Time in epoch (To store when it got added)\n     */\n    function addProduct(Product memory product_, uint256 currentTime_) public {\n        addAProduct(product_, currentTime_);\n    }\n\n    /**\n     * @dev Transfer the ownership\n     * @param partyId_ Purchase user's account address\n     * @param barcodeId_ unique ID of the product\n     * @param currentTime_ Current Date Time in epoch to keep track of the history\n     */\n    function sellProduct(\n        address partyId_,\n        string memory barcodeId_,\n        uint256 currentTime_\n    ) public {\n        sell(partyId_, barcodeId_, currentTime_);\n    }\n\n    /**\n     * @dev To add an user to my account, which can be used in future at the time of selling\n     * @param user_ Details of the user that need to be added\n     */\n    function addParty(UserDetails memory user_) public {\n        addparty(user_, msg.sender);\n    }\n\n    /**\n     * @dev To get details of the user\n     * @param id_ User Id for whom the details were needed\n     * @return user_ Details of the current logged-in User\n     */\n    function getUserDetails(address id_)\n        public\n        view\n        returns (UserDetails memory)\n    {\n        return getPartyDetails(id_);\n    }\n\n    /**\n     * @dev To get details of the current logged-in user\n     * @return user_ Details of the current logged-in User\n     */\n    function getMyDetails() public view returns (UserDetails memory) {\n        return getPartyDetails(msg.sender);\n    }\n\n    /**\n     * @dev To get List of users that were added by the current logged-in user\n     * @return usersList_ List of UserDetail objects will be returned (Which are added by same user)\n     */\n    function getMyUsersList()\n        public\n        view\n        returns (UserDetails[] memory usersList_)\n    {\n        return getMyPartyList(msg.sender);\n    }\n}\n",
  "sourcePath": "/Users/sureshkonakanchi/Desktop/content-fest/Supply Chain Management/blockchain - truffle/contracts/SupplyChain.sol",
  "compiler": {
    "name": "solc",
    "version": "0.8.13+commit.abaa5c0e.Emscripten.clang"
  },
  "schemaVersion": "3.4.6",
  "updatedAt": "2022-04-04T10:33:35.951Z",
  "networkType": "ethereum",
  "devdoc": {
    "author": "Suresh Konakanchi | GeekyAnts",
    "details": "Implements the transparency in the supply chain to understand the actual user & the flow of the products/medicines",
    "kind": "dev",
    "methods": {
      "addParty((uint8,address,string,string))": {
        "details": "To add an user to my account, which can be used in future at the time of selling",
        "params": {
          "user_": "Details of the user that need to be added"
        }
      },
      "addProduct((string,string,address,uint256,uint256,bool,uint256,string,string,uint8,string,string,string[],string[]),uint256)": {
        "details": "Adds new product to the products list",
        "params": {
          "currentTime_": "Current Date, Time in epoch (To store when it got added)",
          "product_": "unique ID of the product"
        }
      },
      "constructor": {
        "details": "Create a new SupplyChain with the provided 'manufacturer'",
        "params": {
          "email_": "Email of the manufacturer",
          "name_": "Name of the manufacturer"
        }
      },
      "getAllProducts()": {
        "details": "To get All the products list.",
        "returns": {
          "_0": "productsList All the products that were added so far"
        }
      },
      "getMyDetails()": {
        "details": "To get details of the current logged-in user",
        "returns": {
          "_0": "user_ Details of the current logged-in User"
        }
      },
      "getMyProducts()": {
        "details": "To get all the products linked a particular user",
        "returns": {
          "_0": "productsList All the products that were linked to current logged-in user"
        }
      },
      "getMyUsersList()": {
        "details": "To get List of users that were added by the current logged-in user",
        "returns": {
          "usersList_": "List of UserDetail objects will be returned (Which are added by same user)"
        }
      },
      "getSingleProduct(string)": {
        "details": "Get single product",
        "params": {
          "barcodeId_": "Unique ID of the product"
        },
        "returns": {
          "_0": "product_ Details of the product & it's timeline",
          "_1": "history_ product lifecycle, who purchased when"
        }
      },
      "getUserDetails(address)": {
        "details": "To get details of the user",
        "params": {
          "id_": "User Id for whom the details were needed"
        },
        "returns": {
          "_0": "user_ Details of the current logged-in User"
        }
      },
      "sellProduct(address,string,uint256)": {
        "details": "Transfer the ownership",
        "params": {
          "barcodeId_": "unique ID of the product",
          "currentTime_": "Current Date Time in epoch to keep track of the history",
          "partyId_": "Purchase user's account address"
        }
      }
    },
    "title": "SupplyChain",
    "version": 1
  },
  "userdoc": {
    "kind": "user",
    "methods": {},
    "version": 1
  }
}